:020000040800F2
:1000000000000220C93E0008913C0008993C00080D
:10001000A13C0008A93C0008B13C00080000000019
:10002000000000000000000000000000B93C0008D3
:10003000C73C000800000000D53C0008E33C000875
:10004000193F0008193F0008193F0008193F000830
:10005000193F0008193F0008193F0008193F000820
:10006000193F0008193F0008193F0008193F000810
:10007000193F0008193F0008193F0008193F000800
:10008000193F0008193F0008193F0008193F0008F0
:10009000193F0008193F0008193F0008193F0008E0
:1000A000F13C0008193F0008193F0008193F0008FB
:1000B000193F0008193F0008193F0008193F0008C0
:1000C000193F0008193F0008193F0008193F0008B0
:1000D000193F0008193F0008193F0008193F0008A0
:1000E000193F0008193F0008193F0008193F000890
:1000F000193F0008193F0008193F0008193F000880
:10010000193F0008193F0008053D0008193F000885
:10011000193F0008193F0008193F0008193F00085F
:10012000193F0008193F0008193F0008193F00084F
:10013000193F00080000000000000000193F0008FF
:10014000193F0008193F0008193F0008193F00082F
:10015000193F0008193F0008193F0008193F00081F
:10016000193F0008193F0008193F0008193F00080F
:10017000193F0008193F00080000000000000000BF
:08018000193F0008193F0008B7
:1001900010B5054C237833B9044B13B10448AFF3C1
:1001A00000800123237010BDD80100200000000052
:1001B000C4A8000808B5034B1BB103490348AFF3BB
:1001C000008008BD00000000DC010020C4A8000879
:1001D00001F0FF01102A2BDB10F0070F08D010F8F8
:1001E000013B013A8B422DD010F0070F42B3F6D1FC
:1001F000F0B441EA012141EA014122F007047FF015
:1002000000070023F0E80256083C85EA010586EA6B
:10021000010685FA47F5A3FA87F586FA47F6A5FAA7
:1002200087F68EB9EED1F0BC01F0FF0102F00702B3
:1002300032B110F8013B013A83EA010313B1F8D15E
:100240000020704701387047002D06BF354603383F
:10025000073815F0010F07D1013015F4807F02BF78
:10026000013015F4C03F0130F0BC0138704700BFC9
:10027000034613F8012B002AFBD1181A01387047E6
:1002800081F0004102E000BF83F0004330B54FEA47
:1002900041044FEA430594EA050F08BF90EA020FB4
:1002A0001FBF54EA000C55EA020C7FEA645C7FEA47
:1002B000655C00F0E2804FEA5454D4EB5555B8BF6A
:1002C0006D420CDD2C4480EA020281EA030382EADB
:1002D000000083EA010180EA020281EA0303362D6D
:1002E00088BF30BD11F0004F4FEA01314FF4801C40
:1002F0004CEA113102D0404261EB410113F0004F52
:100300004FEA03334CEA133302D0524263EB430308
:1003100094EA050F00F0A780A4F10104D5F1200EA6
:100320000DDB02FA0EFC22FA05F2801841F1000101
:1003300003FA0EF2801843FA05F359410EE0A5F1D5
:1003400020050EF1200E012A03FA0EFC28BF4CF006
:10035000020C43FA05F3C01851EBE37101F00045BC
:1003600007D54FF0000EDCF1000C7EEB00006EEBC9
:100370000101B1F5801F1BD3B1F5001F0CD3490853
:100380005FEA30004FEA3C0C04F101044FEA4452AA
:1003900012F5800F80F09A80BCF1004F08BF5FEA31
:1003A000500C50F1000041EB045141EA050130BD11
:1003B0005FEA4C0C404141EB0101013C28BFB1F523
:1003C000801FE9D291F0000F04BF01460020B1FA6E
:1003D00081F308BF2033A3F10B03B3F120020CDA41
:1003E0000C3208DD02F1140CC2F10C0201FA0CF01F
:1003F00021FA02F10CE002F11402D8BFC2F1200C84
:1004000001FA02F120FA0CFCDCBF41EA0C01904039
:10041000E41AA2BF01EB0451294330BD6FEA040482
:100420001F3C1CDA0C340EDC04F11404C4F120026D
:1004300020FA04F001FA02F340EA030021FA04F37F
:1004400045EA030130BDC4F10C04C4F1200220FAD6
:1004500002F001FA04F340EA0300294630BD21FA14
:1004600004F0294630BD94F0000F83F4801306BFDA
:1004700081F480110134013D4EE77FEA645C18BFCE
:100480007FEA655C29D094EA050F08BF90EA020F65
:1004900005D054EA000C04BF1946104630BD91EA5D
:1004A000030F1EBF0021002030BD5FEA545C05D160
:1004B0004000494128BF41F0004130BD14F580049F
:1004C0003CBF01F5801130BD01F0004545F0FE4113
:1004D00041F470014FF0000030BD7FEA645C1ABF48
:1004E000194610467FEA655C1CBF0B46024650EA7F
:1004F000013406BF52EA033591EA030F41F40021AB
:1005000030BD00BF90F0000F04BF0021704730B530
:100510004FF4806404F132044FF000054FF0000105
:1005200050E700BF90F0000F04BF0021704730B5C6
:100530004FF4806404F1320410F0004548BF40429B
:100540004FF000013EE700BF42004FEAE2014FEAF0
:1005500031014FEA02701FBF12F07F4393F07F4FCB
:1005600081F06051704732F07F4208BF704793F0CE
:100570007F4F04BF41F40021704730B54FF46074E1
:1005800001F0004521F000411CE700BF50EA0102E4
:1005900008BF704730B54FF000050AE050EA01028D
:1005A00008BF704730B511F0004502D5404261EBFD
:1005B00041014FF4806404F132045FEA915C3FF43E
:1005C000D8AE4FF003025FEADC0C18BF03325FEADB
:1005D000DC0C18BF033202EBDC02C2F1200300FA8C
:1005E00003FC20FA02F001FA03FE40EA0E0021FAB1
:1005F00002F11444BDE600BF70B54FF0FF0C4CF49F
:10060000E06C1CEA11541DBF1CEA135594EA0C0F50
:1006100095EA0C0F00F0DEF82C4481EA030621EA8B
:100620004C5123EA4C5350EA013518BF52EA0335C6
:1006300041F4801143F4801338D0A0FB02CE4FF078
:100640000005E1FB02E506F00042E0FB03E54FF0A8
:100650000006E1FB03569CF0000F18BF4EF0010EA0
:10066000A4F1FF04B6F5007F64F5407404D25FEA9C
:100670004E0E6D4146EB060642EAC62141EA55514F
:100680004FEAC52040EA5E504FEACE2EB4F1FD0C91
:1006900088BFBCF5E06F1ED8BEF1004F08BF5FEA0F
:1006A000500E50F1000041EB045170BD06F00046C1
:1006B00046EA010140EA020081EA0301B4EB5C046E
:1006C000C2BFD4EB0C0541EA045170BD41F4801166
:1006D0004FF0000E013C00F3AB8014F1360FDEBF8B
:1006E000002001F0004170BDC4F10004203C35DA67
:1006F0000C341BDC04F11404C4F1200500FA05F3EA
:1007000020FA04F001FA05F240EA020001F000428A
:1007100021F0004110EBD37021FA04F642EB060100
:100720005EEA430E08BF20EAD37070BDC4F10C042A
:10073000C4F1200500FA04F320FA05F001FA04F2EE
:1007400040EA020001F0004110EBD37041F10001DA
:100750005EEA430E08BF20EAD37070BDC4F12005E5
:1007600000FA05F24EEA020E20FA04F301FA05F24D
:1007700043EA020321FA04F001F0004121FA04F2F5
:1007800020EA020000EBD3705EEA430E08BF20EAC5
:10079000D37070BD94F0000F0FD101F000464000FF
:1007A00041EB010111F4801F08BF013CF7D041EA81
:1007B000060195F0000F18BF704703F00046520085
:1007C00043EB030313F4801F08BF013DF7D043EA56
:1007D0000603704794EA0C0F0CEA135518BF95EA0C
:1007E0000C0F0CD050EA410618BF52EA4306D1D193
:1007F00081EA030101F000414FF0000070BD50EAB2
:10080000410606BF1046194652EA430619D094EA3B
:100810000C0F02D150EA013613D195EA0C0F05D125
:1008200052EA03361CBF104619460AD181EA030179
:1008300001F0004141F0FE4141F470014FF0000031
:1008400070BD41F0FE4141F4780170BD70B54FF0CC
:10085000FF0C4CF4E06C1CEA11541DBF1CEA13554C
:1008600094EA0C0F95EA0C0F00F0A7F8A4EB05042E
:1008700081EA030E52EA03354FEA013100F0888025
:100880004FEA03334FF0805545EA131343EA1263EE
:100890004FEA022245EA111545EA10654FEA0026A3
:1008A0000EF000419D4208BF964244F1FD0404F55C
:1008B000407402D25B084FEA3202B61A65EB0305B8
:1008C0005B084FEA32024FF480104FF4002CB6EB75
:1008D000020E75EB030E22BFB61A754640EA0C00F5
:1008E0005B084FEA3202B6EB020E75EB030E22BF35
:1008F000B61A754640EA5C005B084FEA3202B6EB76
:10090000020E75EB030E22BFB61A754640EA9C0034
:100910005B084FEA3202B6EB020E75EB030E22BF04
:10092000B61A754640EADC0055EA060E18D04FEAC2
:10093000051545EA16754FEA06164FEAC30343EA62
:1009400052734FEAC2025FEA1C1CC0D111F4801F2F
:100950000BD141EA00014FF000004FF0004CB6E728
:1009600011F4801F04BF01430020B4F1FD0C88BFC7
:10097000BCF5E06F3FF6AFAEB5EB030C04BFB6EBD2
:10098000020C5FEA500C50F1000041EB045170BDC5
:100990000EF0004E4EEA113114EB5C04C2BFD4EBF2
:1009A0000C0541EA045170BD41F480114FF0000E76
:1009B000013C90E645EA060E8DE60CEA135594EAF2
:1009C0000C0F08BF95EA0C0F3FF43BAF94EA0C0FF5
:1009D0000AD150EA01347FF434AF95EA0C0F7FF46A
:1009E00025AF104619462CE795EA0C0F06D152EABE
:1009F00003353FF4FDAE1046194622E750EA4106A2
:100A000018BF52EA43067FF4C5AE50EA41047FF4B2
:100A10000DAF52EA43057FF4EBAE12E74FF0FF3C17
:100A200006E000BF4FF0010C02E000BF4FF0010CE8
:100A30004DF804CD4FEA410C7FEA6C5C4FEA430C61
:100A400018BF7FEA6C5C1BD001B050EA410C0CBFB0
:100A500052EA430C91EA030F02BF90EA020F002012
:100A6000704710F1000F91EA030F58BF994208BF79
:100A700090422CBFD8176FEAE37040F00100704736
:100A80004FEA410C7FEA6C5C02D150EA013C07D18D
:100A90004FEA430C7FEA6C5CD6D152EA033CD3D0D8
:100AA0005DF8040B704700BF8446104662468C46D2
:100AB0001946634600E000BF01B5FFF7B7FF002805
:100AC00048BF10F1000F01BD4DF808EDFFF7F4FF2E
:100AD0000CBF012000205DF808FB00BF4DF808EDB9
:100AE000FFF7EAFF34BF012000205DF808FB00BFDC
:100AF0004DF808EDFFF7E0FF94BF012000205DF8FE
:100B000008FB00BF4DF808EDFFF7CEFF94BF0120B2
:100B100000205DF808FB00BF4DF808EDFFF7C4FFAB
:100B200034BF012000205DF808FB00BF4FEA410CF4
:100B30007FEA6C5C02D150EA013C0AD14FEA430CD7
:100B40007FEA6C5C02D152EA033C02D14FF0000014
:100B500070474FF0010070474FEA410212F5001252
:100B600015D211D56FF47873B3EB625212D94FEAF4
:100B7000C12343F0004343EA505311F0004F23FADE
:100B800002F018BF404270474FF00000704750EA33
:100B9000013005D111F0004008BF6FF000407047F0
:100BA0004FF00000704700BF4A0011D212F500124A
:100BB00011D20DD56FF47873B3EB62520ED44FEAB5
:100BC000C12343F0004343EA505323FA02F0704735
:100BD0004FF00000704750EA013002D14FF0FF3073
:100BE00070474FF0000070474FEA4102B2F1E04316
:100BF00024BFB3F5001CDCF1FE5C0DD901F0004C04
:100C00004FEAC0024CEA5070B2F1004F40EB830053
:100C100008BF20F00100704711F0804F21D113F17F
:100C20003872BCBF01F00040704741F480114FEAB8
:100C30005252C2F11802C2F1200C10FA0CF320FA41
:100C400002F018BF40F001004FEAC1234FEAD3235E
:100C500003FA0CFC40EA0C0023FA02F34FEA4303C8
:100C6000CCE77FEA625307D150EA01331EBF4FF051
:100C7000FE4040F44000704701F0004040F0FE406C
:100C800040F40000704700BF53B94AB9002908BFBB
:100C900000281CBF4FF0FF314FF0FF3000F088B943
:100CA000ADF1080C6DE904CE00F006F8DDF804E0C3
:100CB000DDE9022304B070472DE9F047089D8E4618
:100CC00004468846002B4AD18A42174662D9B2FAB6
:100CD00082F64EB1C6F1200301FA06F820FA03F3BA
:100CE000B74043EA0808B4404FEA174E1FFA87FCA2
:100CF000B8FBFEF1230C0EFB118843EA084301FB0D
:100D00000CF29A4209D9FB1801F1FF3080F0EA8019
:100D10009A4240F2E78002393B449A1AA3B2B2FBEE
:100D2000FEF00EFB102243EA024300FB0CFC9C4544
:100D300009D9FB1800F1FF3280F0D6809C4540F2C3
:100D4000D3803B44023840EA0140A3EB0C0300216E
:100D50001DB1F3400022C5E90032BDE8F0878B42A7
:100D600005D90DB1C5E9000100210846F5E7B3FA40
:100D700083F1002946D1734502D3824200F20581F6
:100D8000841A6EEB030201209046002DE5D0C5E9E0
:100D90000048E2E7002A00F09080B2FA82F6002EC6
:100DA00040F0A4808A1A030C4FEA174E80B2BCB2FE
:100DB0000121B2FBFEFC0EFB1C2243EA024304FBB2
:100DC0000CF29A4207D9FB180CF1FF3802D29A4272
:100DD00000F2E080C4469B1AB3FBFEF20EFB123316
:100DE00040EA034302FB04F49C4207D9FB1802F1DA
:100DF000FF3002D29C4200F2CA8002461B1B42EA2C
:100E00000C40A5E7C1F120068B4022FA06F71F43EC
:100E10000EFA01F420FA06F32EFA06FE4FEA1749FD
:100E2000234300FA01F81FFA87FCBEFBF9F01C0C03
:100E300009FB10EE44EA0E4400FB0CFEA64502FA44
:100E400001F209D93C1900F1FF3A80F09C80A645D7
:100E500040F2998002383C44A4EB0E041FFA83FE52
:100E6000B4FBF9F309FB13444EEA044403FB0CFC06
:100E7000A44508D93C1903F1FF3E80F08280A445C7
:100E80007FD9023B3C4443EA0040A4EB0C04A0FBA6
:100E900002EC64457346E14662D35FD05DB1B8EBC6
:100EA000030264EB090404FA06F622FA01F31E4376
:100EB000CC40C5E9006400214FE7B1FBF2FC010C16
:100EC00041EA0E4180B240EA01423B4638463C4688
:100ED000B846BE462026B1FBF7F1A2EB080241EA74
:100EE0000C4166E7014618E710462CE7C6F12002E0
:100EF0002EFA02F3B740B14020FA02F24FEA174E41
:100F00000A43B3FBFEF8BCB20EFB1833110C41EAE6
:100F1000034108FB04F9B04089454FEA104380B211
:100F20003ED9791808F1FF3C01D289451FD8A1EBC1
:100F30000901B1FBFEF909FB04F80EFB191192B28D
:100F400042EA0142424529D2BA1809F1FF31C4D21E
:100F50004245C2D2A9F102013A44BEE7F0459DD212
:100F6000BEEB02036CEB070C0138E14696E7A7EBFA
:100F700009094944A8F1020CB1FBFEF909FB04F888
:100F8000DBE773467FE7504666E70846FDE63B44ED
:100F9000023A33E7ACF1020C3B441CE749469CE7BC
:100FA000A1EB0901C446B1FBFEF909FB04F8C4E753
:100FB000704700BF0000000090B583B000AF03464B
:100FC000FB801B4B1B68C3F3C033DBB2002B24D167
:100FD0000421184805F04CFA164B1B68FA88DA62AF
:100FE000FB88144AD360FB881846FFF79BFA0EA3D0
:100FF000D3E90023FFF700FB02460B460D490C68BE
:1010000010461946FFF7D0FD0346A363C82002F03F
:10101000F7FF0421074805F0F3FA00BF0C37BD467F
:1010200090BD00BFAFF30080333333333333E33F3E
:10103000F8010020C484002080B584B000AF78603F
:101040007B68DBB2FB7307F10F0101230122034828
:1010500006F0CFFB00BF1037BD4680BDE485002001
:10106000B0B500AF884B5B6A07EE903AF8EE677A4E
:10107000864BC3ED007A864B5B6A07EE903AF8EE3A
:10108000677A844BC3ED007A804BD3ED007A9FEDF5
:10109000827A77EEC77A814BC3ED007A7D4BD3ED30
:1010A000007A9FED7D7A77EEC77A7D4BC3ED007AAB
:1010B000754B47F230525A62754B47F230525A62C2
:1010C000764BD3ED007AF1EE677A744BC3ED007A7C
:1010D000724B1B681846FFF737FA63A3D3E9002366
:1010E000FFF78AFA02460B461046194660A3D3E979
:1010F0000023FFF781FA02460B46104619465EA30D
:10110000D3E90023FFF778FA02460B46104619464A
:10111000FFF76AFD0346614A1360614B1B6818467E
:10112000FFF712FA50A3D3E90023FFF765FA02464E
:101130000B46104619464EA3D3E90023FFF75CFA8D
:1011400002460B46104619464BA3D3E90023FFF78E
:1011500053FA02460B4610461946FFF745FD034673
:101160004F4A13604D4B1B681846FFF7EDF944A337
:10117000D3E90023FFF740FA02460B4614461D460A
:10118000484B1B681846FFF7DFF902460B4620461E
:101190002946FFF77BF802460B4610461946FFF733
:1011A00023FD03463F4A13603D4B1B681846FFF77B
:1011B000CBF933A3D3E90023FFF71EFA02460B460F
:1011C00014461D46384B1B681846FFF7BDF902460A
:1011D0000B4620462946FFF759F802460B461046B3
:1011E0001946FFF701FD03462F4A13602B4B93ED81
:1011F000007A2B4BD3ED007A77EE277A17EE900A20
:10120000FFF7A2F94FF00002284BFFF7F5F902466D
:101210000B4610461946FFF7E7FC0346244A1360C5
:10122000204B93ED007A204BD3ED007A77EE277AAE
:1012300017EE900AFFF788F94FF000021B4BFFF7FB
:10124000DBF902460B4610461946FFF7CDFC034674
:10125000184A13600D4B1B68174A13600D4B1B682F
:10126000164A136000BFB0BD558671378856D03F0F
:10127000000000C0CCCC37406F1283C0CA210940A7
:10128000FCA9F1D24D62503F0004014074020020DD
:1012900000080040780200200060EA468402002036
:1012A000880200208C020020900200200000E03F15
:1012B0003C020020240200207C020020800200204A
:1012C000B0B500AF02F0A6F81D4BD3ED007AF1EEF9
:1012D000677A1C4BC3ED007A1B4B1B681846FFF75F
:1012E00033F904460D46164B1B681846FFF72CF9D8
:1012F00011A3D3E90023FFF77FF902460B462046EE
:101300002946FEF7C3FF02460B4610461946FFF773
:101310006BFC03460C4A13600B4B1B680B4A1360B3
:101320000B4BD3ED007A9FED0B7A67EE877A0A4B71
:10133000C3ED007A00BFB0BDFCA9F1D24D62503FB1
:10134000108300205C020020940200205402002040
:101350001883002000007A44B8020020000000003A
:10136000B0B500AF244B1B681846FFF7EDF820A37B
:10137000D3E90023FFF740F902460B4614461D4609
:101380001E4B1B681846FFF7DFF802460B46204647
:101390002946FEF77BFF02460B4610461946FFF72B
:1013A00023FC0346154A1360144B1B681846FFF7CD
:1013B000CBF80FA3D3E90023FFF71EF902460B4633
:1013C00014461D460E4B1B681846FFF7BDF8024633
:1013D0000B4620462946FEF759FF02460B461046AB
:1013E0001946FFF701FC0346054A136000BFB0BD74
:1013F000FCA9F1D24D62503F0C02002010020020E7
:101400001402002000000000B0B500AF244B1B68A0
:101410001846FFF799F820A3D3E90023FFF7ECF86B
:1014200002460B4614461D461E4B1B681846FFF726
:101430008BF802460B4620462946FEF727FF024658
:101440000B4610461946FFF7CFFB0346154A1360BB
:10145000144B1B681846FFF777F80FA3D3E9002356
:10146000FFF7CAF802460B4614461D460E4B1B6892
:101470001846FFF769F802460B4620462946FEF754
:1014800005FF02460B4610461946FFF7ADFB034623
:10149000054A136000BFB0BDFCA9F1D24D62503FB8
:1014A000180200201C0200202002002080B400AF9F
:1014B0002B4B1B682B4A13602A4BD3ED007A9FED10
:1014C0002A7AF4EEC77AF1EE10FA09DC254BD3ED57
:1014D000007A9FED267AF4EEC77AF1EE10FA04D581
:1014E000234A136843F0004313601E4B93ED007AC8
:1014F000204BD3ED007A77EE277A1E4BC3ED007AAE
:10150000184B93ED007A1C4BD3ED007A77EE677A97
:101510001A4BC3ED007A134BD3ED007AB1EE087A83
:1015200027EE877A134BD3ED007ADFED156A67EE6D
:10153000A67A37EE277A114BD3ED007AF2EE026AE3
:1015400067EEA67A77EE277A0E4BC3ED007A054B4D
:101550001B68094A136000BFBD465DF8047B7047F5
:10156000380200204002002000401C4600401CC6FB
:10157000F80100204C020020480200204402002014
:101580006F12833C5002002080B400AF224B93EDD9
:10159000007A224BD3ED007A77EE677A204BC3EDC9
:1015A000007A1F4B93ED007A1E4BD3ED007A77EE55
:1015B000277A1C4BC3ED007A194B93ED007A1A4B36
:1015C000D3ED007A77EE677A184BC3ED007A144BAF
:1015D000D3ED007AB2EE0C7A27EE877A114BD3ED79
:1015E000007ADFED136A67EEA67A37EE277A0F4BA3
:1015F000D3ED007AF2EE0C6A67EEA67A77EE277AE0
:101600000C4BC3ED007A064B1B68074A136000BF02
:10161000BD465DF8047B70471402002024020020C0
:101620002802002034020020300200202C0200207A
:101630000AD7233C3802002080B400AF274B93ED3B
:10164000007A274BD3ED007A37EE677A254BD3ED3E
:10165000007A37EE277A244BD3ED007A77EE277A9B
:10166000224BC3ED007A214B93ED007A204BD3ED52
:10167000007A77EE277A1E4BC3ED007A1D4B93ED6F
:10168000007A1D4BD3ED007A77EE677A1B4BC3EDE2
:10169000007A164BD3ED007AB7EE087A27EE877AF8
:1016A000134BD3ED007ADFED166A67EEA67A37EEBC
:1016B000277A124BD3ED007ADFED126A67EEA67A35
:1016C00077EE277A104BC3ED007A084B1B680A4A65
:1016D000136000BFBD465DF8047B70471C0200200C
:1016E0005C02002098020020B0020020600200206E
:1016F0006C020020580200206802002064020020D2
:101700000AD7A33C00000000700200200000000087
:1017100080B584B000AF8C4B1B68C3F38003DBB291
:10172000002B00F0FF804FF00003FB60874B1B880D
:101730009BB207EE903AB8EEE77A854BD3ED007A8C
:1017400077EE677AC7ED017A824B1B889BB207EE72
:10175000903AB8EEE77A804BD3ED007A77EE677A6D
:10176000C7ED007AD7ED017AFDEEE77A17EE903AF1
:10177000002BB8BF5B42162B03DD4FF4C8737B818F
:1017800002E04FF4B9737B81D7ED007AFDEEE77A82
:1017900017EE903A002BB8BF5B42162B03DD4FF4D7
:1017A000C8733B8102E04FF4B9733B81674B1B88E0
:1017B0009BB27A899A421DD2664B1B889BB23A89AA
:1017C0009A4217D2634B1B889BB21A46634B1B8805
:1017D0009BB2D21A5D4B1B889BB21946604B1B888B
:1017E0009BB2CB1AD31A07EE903AF8EEE77AC7ED20
:1017F000037A49E0554B1B889BB27A899A4209D9F2
:10180000544B1B889BB23A899A4203D94FF000038C
:10181000FB6039E04D4B1B889BB27A899A4218D203
:101820004C4B1B889BB23A899A4212D9474B1B8872
:101830009BB21A464A4B1B889BB2D21A1346DB074F
:101840009B1A5B0007EE903AF8EEE77AC7ED037A51
:101850001AE03E4B1B889BB27A899A4214D93D4BC1
:101860001B889BB23A899A420ED23A4B1B889BB294
:101870001A463A4B1B889BB2D31A5B0007EE903A8C
:10188000F8EEE77AC7ED037A364B93ED007AD7EDA1
:10189000037A67EE277A344BC3ED007A324BD3EDEF
:1018A000007AF5EEC07AF1EE10FA13DD2E4B1B68CC
:1018B0001846FEF749FE20A3D3E90023FFF72CF9D1
:1018C0000346002B02D0284B1B6800E0274B264A1A
:1018D000136012E0244B1B681846FEF735FE18A370
:1018E000D3E90023FFF718F90346002B01D0204B62
:1018F00001E01D4B1B681C4A1360144B1B889BB2F4
:1019000007EE903AF8EE677A114BC3ED007A114B6F
:101910001B889BB207EE903AF8EE677A0E4BC3ED48
:10192000007A03E0104B4FF000021A6000BF10373E
:10193000BD4680BDAFF30080FCA9F1D24D62603F8F
:10194000FCA9F1D24D6260BFF8010020DE820020C8
:101950009C020020E4820020A0020020E8820020F7
:10196000EA820020A4020020980200206F12033BAC
:101970006F1203BB80B400AF4F4B1B68C3F34053DF
:10198000DBB2002B00F093804C4B1B889BB207EE20
:10199000903AB8EEE77A4A4BD3ED007AB4EEE77AA4
:1019A000F1EE10FA42DD474B1B889BB207EE903AEE
:1019B000B8EEE77A424BD3ED007AB4EEE77AF1EE77
:1019C00010FA33DD3D4B1B889AB23E4B1B889BB20D
:1019D0009A4216D93C4BD3ED007AB1EE677A374B79
:1019E0001B889BB21A46374B1B889BB2D31A07EE53
:1019F000903AF8EEE77A67EE277A344BC3ED007A37
:101A000055E0304B1B889BB21A462C4B1B889BB26F
:101A1000D31A07EE903AB8EEE77A2B4BD3ED007A63
:101A200067EE277A294BC3ED007A40E0234B1B88F1
:101A30009BB207EE903AB8EEE77A214BD3ED007AED
:101A4000B4EEE77AF1EE10FA11DD1F4BD3ED007A18
:101A5000B1EE677A194B1B889BB207EE903AF8EE0D
:101A6000E77A67EE277A194BC3ED007A1FE0154B32
:101A70001B889BB207EE903AB8EEE77A104BD3ED95
:101A8000007AB4EEE77AF1EE10FA00DC0FE00D4BCD
:101A90001B889BB207EE903AB8EEE77A0A4BD3ED7B
:101AA000007A67EE277A094BC3ED007AFFE700BFA3
:101AB000BD465DF8047B7047F8010020E0820020FD
:101AC000A8020020E2820020AC020020B002002028
:101AD00080B500AF3C21094804F0A8FE3C2108482D
:101AE00004F0A4FE074B00221A8007494FF00002C1
:101AF0004FF00003C1E9002300BF80BD9C8500209A
:101B00000C850020BE020020F801002080B582B0C4
:101B100000AF0346FB71FB7903F00F03002B02D0EB
:101B2000012B0BD015E0002220211C4803F01EF9E8
:101B300001221021194803F019F90AE0012220219D
:101B4000164803F013F900221021144803F00EF98F
:101B500000BFFB7903F0F003002B02D0102B0CD058
:101B600017E0012202210E4803F000F900224FF491
:101B700080610B4803F0FAF80BE0002202210848CC
:101B800003F0F4F801224FF48061054803F0EEF809
:101B900000BF00BF0837BD4680BD00BF000802403F
:101BA0000004024080B500AFA14B93ED007AA14B39
:101BB000D3ED007A77EE677A9F4BC3ED007A9C4BAA
:101BC00093ED007A9B4BD3ED007A77EE277A9B4B0F
:101BD000C3ED007A984B93ED007A984BD3ED007AE1
:101BE00077EE677A9FED967AF4EEC77AF1EE10FA07
:101BF0000EDC914B93ED007A904BD3ED007A77EEAB
:101C0000677A9FED907AF4EEC77AF1EE10FA0ED56E
:101C10008D4B1B68C3F38073DBB2002B07D08B4B5B
:101C20001B889BB201339AB2884B1A8002E0874B23
:101C300000221A80854B1B889BB2322B07D9824A1F
:101C4000136843F000431360804B00221A80804BDE
:101C5000D3ED007A9FED7F7AF4EEC77AF1EE10FAB9
:101C600009D47B4BD3ED007A9FED7B7AF4EEC77AF3
:101C7000F1EE10FA0EDD744B1B68C3F38073DBB218
:101C8000002B07D0754B1B889BB201339AB2734B64
:101C90001A8002E0714B00221A80704B1B889BB2A5
:101CA000142B0ED9684B1B68C3F38073DBB2002B77
:101CB00007D0654A136843F000431360674B002266
:101CC0001A805D4BD3ED007AF5EEC07AF1EE10FA92
:101CD0000BDB5A4BD3ED007AF5EEC07AF1EE10FA39
:101CE00003DB0020FFF712FF5AE0534BD3ED007ADD
:101CF000F5EEC07AF1EE10FA13DB504BD3ED007A1B
:101D0000F5EEC07AF1EE10FA0BD50120FFF7FEFEDA
:101D10004A4BD3ED007AF1EE677A484BC3ED007A77
:101D20003EE0454BD3ED007AF5EEC07AF1EE10FAC5
:101D300013D5424BD3ED007AF5EEC07AF1EE10FAEE
:101D40000BDB1020FFF7E2FE3B4BD3ED007AF1EE08
:101D5000677A394BC3ED007A22E0374BD3ED007A36
:101D6000F5EEC07AF1EE10FA1AD5344BD3ED007AC5
:101D7000F5EEC07AF1EE10FA12D51120FFF7C6FE8B
:101D80002D4BD3ED007AF1EE677A2B4BC3ED007A41
:101D90002A4BD3ED007AF1EE677A284BC3ED007A37
:101DA000294B1B68C3F3C073DBB2002B0FD02C4B45
:101DB0001B6800221A642A4B1B6800225A63002009
:101DC00000F052F84FF49660FFF7F6F82DE01A4B4A
:101DD000D3ED007A9FED237AF4EEC77AF1EE10FA94
:101DE00002DD4FF47A7206E0134BD3ED007AFCEE7D
:101DF000E77A17EE902A1A4B1B681A640F4BD3ED43
:101E0000007A9FED187AF4EEC77AF1EE10FA02DD4F
:101E10004FF47A7206E0094BD3ED007AFCEEE77AD4
:101E200017EE902A0E4B1B685A6300BF80BD00BF9F
:101E3000500200207002002004020020080200204E
:101E400000401C4600401CC6F8010020B4020020DF
:101E5000B802002000D084C600D08446B60200201C
:101E60007C84002000007A4480B584B000AF034633
:101E7000FB80FB88002B05D0174A136843F400430E
:101E8000136004E0144A136823F400431360FB88D2
:101E9000002B15D00021114804F0EAFA0023FB8141
:101EA00009E00E4B1B68FA895A63042002F0A8F877
:101EB000FB890133FB81FA89FB889A42F1D307E061
:101EC000064B1B6800225A630021044804F098FB6B
:101ED00000BF1037BD4680BDF8010020C48400203B
:101EE00080B582B000AF78607B681A68A64B1B682B
:101EF0009A4240F0A7800421A44802F01FFF034645
:101F0000002B01D100BFFDE7A14B1B78DBB2002BFA
:101F10002CD1012201219F4802F028FF01224FF419
:101F200080419A4802F022FF142000F06FF901F07E
:101F300069F803469AB2984B1A8001F087F8034675
:101F40009AB2964B1A8000220121924802F00EFFAD
:101F500000224FF480418D4802F008FF8C4B1B7823
:101F6000DBB20133DAB28A4B1A703AE0884B1B7845
:101F7000DBB2012B2CD101220221864802F0F6FEB1
:101F800001224FF40041814802F0F0FE142000F0DD
:101F90003DF901F043F803469AB2814B1A8001F0F3
:101FA00049F803469AB27F4B1A80002202217948F1
:101FB00002F0DCFE00224FF40041744802F0D6FE2D
:101FC000734B1B78DBB20133DAB2714B1A7008E045
:101FD00001F048F803469AB2734B1A806C4B00220A
:101FE0001A7001F0BBFA01F0F5FAFFF739F8FFF7C4
:101FF00067F96D4B1B889BB240F6B83293420AD802
:1020000000224FF40041694802F0B0FE0022402156
:10201000674802F0ABFE674B1B68C3F3C003DBB23B
:10202000002B0FD1FFF774FBFFF7A4FCFFF798F923
:10203000FFF7EAF9FFF7A8FAFFF738FAFFF7FCFA1B
:10204000FFF7B0FD5C4B1B889BB2012B06D95A4BA6
:102050001B889BB2013B9AB2574B1A80574B1B8887
:102060009BB2012B07D9554B1B889BB2013B9AB2FF
:10207000524B1A800BE0514B1B889BB2002B06D0B1
:1020800004214F4804F0BCFA4C4B00221A80494B03
:102090001B68C3F30013DBB2002B70D0494B1B88C5
:1020A0009BB2B3F57A7F6AD2464B1B889AB2454BF6
:1020B0001B889BB207EE902AF8EE677A424A9B0093
:1020C0001344C3ED007A3F4B1B889BB218463F4B2D
:1020D0001A683F4983000B441A603A4B1B889BB235
:1020E00018463C4B1A683C4983000B441A603B4B32
:1020F000D3ED007A334B1B889BB2B7EE087A67EEBC
:10210000877A374A9B001344C3ED007A354BD3EDF1
:10211000007A2C4B1B889BB29FED337A67EE877A4F
:10212000324A9B001344C3ED007A314BD3ED007A61
:10213000244B1B889BB29FED2F7A67EE877A2E4A3D
:102140009B001344C3ED007A1E4B1B889BB21846BC
:102150002A4B1A682A4983000B441A60194B1B88C2
:102160009BB21846274B1A68274983000B441A6014
:10217000144B1B889BB201339AB2124B1A8000BFDA
:102180000837BD4680BD00BF5485002000080240CE
:10219000C0020020001C0240DE820020E4820020F9
:1021A000E0820020E2820020E6820020000402405B
:1021B00000000240F8010020BE020020BC02002006
:1021C000C4840020C47F0020C40200201C02002020
:1021D000641200205C020020042200206002002023
:1021E000A43100206C0200200AD7A33C4441002007
:1021F0006402002000000000E450002004020020DF
:1022000084600020080200202470002080B485B083
:1022100000AF7860094B1B685B6A7A681344FB6007
:1022200000BF064B1B685B6AFA689A42F9D800BF88
:1022300000BF1437BD465DF8047B7047348400202E
:1022400090B585B002AF01F069FE00F05FF800F0D4
:10225000ABFC00F0C5F800F07DFC00F059FA00F08E
:10226000D7FA00F057FB00F01DFC00F045F900F034
:10227000CBFB00F079F900F0ADF900F0ADFD00F016
:1022800067FEFFF725FC1A4806F0A8FB40F24C4316
:10229000FB8006E0FB881846FEF78EFEFB88963B27
:1022A000FB80FB88B3F5967FF4D800233B60114B8D
:1022B0001B889BB21946104B1B889BB218460F4BCC
:1022C0001B889BB21C460E4B1B889BB21A460D4BBB
:1022D0001B889BB201930092234602460A4806F0EF
:1022E00015FB4FF4967001F08BFE00BFDFE700BFD7
:1022F000E0A80008DE820020E4820020E0820020C6
:10230000E2820020E682002004A9000880B594B093
:1023100000AF07F1200330220021184606F03EFCF2
:1023200007F10C0300221A605A609A60DA601A61A1
:102330000023BB60284B1B6C274A43F08053136477
:10234000254B1B6C03F08053BB60BB6800237B6094
:10235000224B1B68214A43F4804313601F4B1B68C8
:1023600003F480437B607B6802233B620123FB62B2
:1023700010233B630223BB630023FB6308233B64FE
:10238000A8237B640223BB640423FB6407F12003BE
:10239000184602F005FD0346002B01D000F016FDA3
:1023A0000F23FB6002233B6100237B614FF4A053AA
:1023B000BB614FF4A053FB6107F10C0305211846E4
:1023C00002F066FF0346002B01D000F0FFFC00BFC7
:1023D0005037BD4680BD00BF00380240007000404D
:1023E00080B584B000AF3B4600221A605A609A6004
:1023F000DA603E4B3E4A1A603C4B00225A603B4B2F
:1024000000229A60394B01221A61384B00221A7659
:10241000364B012283F82020344B01225A62334B81
:102420000022DA62314B334A9A62304B0022DA6082
:102430002E4B0522DA612D4B002283F830202B4BE6
:1024400001225A61294801F0FFFD0346002B01D00B
:1024500000F0BCFC01233B6001237B600123BB60D7
:102460003B461946214801F09DFF0346002B01D051
:1024700000F0ACFC03233B6002237B603B46194623
:102480001A4801F08FFF0346002B01D000F09EFC9C
:1024900000233B6003237B603B461946134801F051
:1024A00081FF0346002B01D000F090FC02233B602B
:1024B00004237B603B4619460C4801F073FF03463A
:1024C000002B01D000F082FC0A233B6005237B60D7
:1024D0003B461946054801F065FF0346002B01D035
:1024E00000F074FC00BF1037BD4680BD3C83002067
:1024F000002001400100000F80B500AF184B194AC1
:102500001A60174B4FF482725A60154B4FF4004219
:102510009A60134B0022DA60114B00221A61104BB3
:1025200000225A610E4B4FF400729A610C4B00224C
:10253000DA610B4B00221A62094B00225A62084BE7
:1025400000229A62064B0A22DA62054803F080F8FC
:102550000346002B01D000F039FC00BF80BD00BF56
:10256000848300200030014080B500AF174B184A2B
:102570001A60164B4FF482725A60144B00229A6014
:10258000124B0022DA60114B00221A610F4B00221D
:102590005A610E4B4FF400729A610C4B2022DA61A3
:1025A0000A4B00221A62094B00225A62074B002292
:1025B0009A62064B0A22DA62044803F049F803469D
:1025C000002B01D000F002FC00BF80BDDC830020A6
:1025D000003C004080B596B000AF07F148030022F0
:1025E0001A605A609A60DA6007F1400300221A60AC
:1025F0005A6007F1240300221A605A609A60DA6078
:102600001A615A619A613B1D20220021184606F08A
:10261000C5FA3D4B3D4A1A603B4B53225A603A4B38
:1026200000229A60384B4FF47A72DA60364B0022FF
:102630001A61354B00225A61334B00229A613248AD
:1026400003F0AEFD0346002B01D000F0BFFB4FF4BA
:102650008053BB6407F1480319462B4804F09AFBEA
:102660000346002B01D000F0B1FB274803F058FED1
:102670000346002B01D000F0A9FB00233B6400239C
:102680007B6407F1400319461F4804F083FF0346AB
:10269000002B01D000F09AFB00237B620023BB6279
:1026A0000023FB6200233B6300237B630023BB63A7
:1026B0000023FB6307F1240300221946124804F0AB
:1026C0004BFA0346002B01D000F080FB00237B6017
:1026D0000023BB600023FB6000233B6100237B6180
:1026E0004FF40053BB6100233B623B1D1946064873
:1026F00004F0CCFF0346002B01D000F067FB00BFC5
:102700005837BD4680BD00BF348400200000014022
:1027100080B58EB000AF07F1280300221A605A601E
:102720009A60DA6007F1200300221A605A603B1DAC
:1027300000221A605A609A60DA601A615A619A61DE
:10274000324B4FF080421A60304B00225A602F4BC0
:1027500000229A602D4B4FF47A72DA602B4B0022E4
:102760001A612A4B00229A61284803F019FD03469A
:10277000002B01D000F02AFB4FF48053BB6207F11D
:1027800028031946214804F005FB0346002B01D01D
:1027900000F01CFB1D4803F012FE0346002B01D085
:1027A00000F014FB00233B6200237B6207F120034F
:1027B0001946164804F0EEFE0346002B01D000F047
:1027C00005FB60237B600023BB600023FB600023CC
:1027D0007B613B1D002219460C4804F019FA0346A0
:1027E000002B01D000F0F2FA3B1D0C2219460748DD
:1027F00004F00EFA0346002B01D000F0E7FA03487C
:1028000001F080F900BF3837BD4680BD7C840020D0
:1028100080B58EB000AF07F1280300221A605A601D
:102820009A60DA6007F1200300221A605A603B1DAB
:1028300000221A605A609A60DA601A615A619A61DD
:10284000324B334A1A60314B53225A602F4B0022CD
:102850009A602E4B4FF47A72DA602C4B00221A6188
:102860002A4B00229A61294803F09AFC0346002B68
:1028700001D000F0ABFA4FF48053BB6207F128039C
:102880001946224804F086FA0346002B01D000F0D6
:102890009DFA1E4803F093FD0346002B01D000F083
:1028A00095FA00233B6200237B6207F1200319465F
:1028B000164804F06FFE0346002B01D000F086FAA4
:1028C00060237B600023BB600023FB6000237B61EF
:1028D0003B1D002219460D4804F09AF90346002BCF
:1028E00001D000F073FA3B1D04221946074804F09A
:1028F0008FF90346002B01D000F068FA034801F07D
:1029000001F900BF3837BD4680BD00BFC484002038
:102910000004004080B592B000AF07F124032422E8
:102920000021184606F03AF907F11C0300221A604C
:102930005A603B4600221A605A609A60DA601A6157
:102940005A619A612E4B2F4A1A602D4B00225A6011
:102950002B4B00229A602A4B4EF66022DA60284BFD
:1029600000221A61264B00229A61254803F0D8FC08
:102970000346002B01D000F029FA03237B620023D9
:10298000BB620123FB6200233B6300237B630023C4
:10299000BB630123FB6300233B6400237B6407F1DB
:1029A00024031946164803F09BFE0346002B01D072
:1029B00000F00CFA0023FB6100233B6207F11C03CB
:1029C00019460F4804F0E6FD0346002B01D000F045
:1029D000FDF900233B6000237B600023BB600023E4
:1029E0003B613B4608221946054804F0B5F803460A
:1029F000002B01D000F0EAF900BF4837BD4680BD8A
:102A00000C8500200008004080B586B000AF07F1BB
:102A1000080300221A605A609A60DA603B4600227E
:102A20001A605A601D4B1E4A1A601C4B53225A6092
:102A30001A4B00229A60194B4FF47A72DA60174BE6
:102A400000221A61154B00229A61144803F0A8FB7A
:102A50000346002B01D000F0B9F94FF48053BB605E
:102A600007F1080319460D4804F094F90346002BBA
:102A700001D000F0ABF900233B6000237B603B46B4
:102A80001946064804F086FD0346002B01D000F0ED
:102A90009DF900BF1837BD4680BD00BF548500209A
:102AA000000C004080B58CB000AF07F10C0324226D
:102AB0000021184606F072F83B1D00221A605A6089
:102AC000224B234A1A60214B00225A601F4B0022DE
:102AD0009A601E4B4EF66022DA601C4B00221A618F
:102AE0001A4B00225A61194B00229A610323FB60A2
:102AF00000233B6101237B610023BB610023FB6159
:102B000000233B6201237B620023BB620023FB6244
:102B100007F10C0319460D4803F0E2FD0346002BB4
:102B200001D000F053F910237B600023BB603B1DF4
:102B30001946064804F02EFD0346002B01D000F094
:102B400045F900BF3037BD4680BD00BF9C850020E1
:102B50000004014080B500AF114B124A1A60104BBF
:102B60004FF4E1325A600E4B00229A600C4B002267
:102B7000DA600B4B00221A61094B0C225A61084B98
:102B800000229A61064B0022DA61054804F0E4FD58
:102B90000346002B01D000F019F900BF80BD00BF33
:102BA000E48500200010014080B58AB000AF07F135
:102BB000140300221A605A609A60DA601A610023D6
:102BC0003B617C4B1B6B7B4A43F004031363794BE3
:102BD0001B6B03F004033B613B690023FB60754BF7
:102BE0001B6B744A43F080031363724B1B6B03F03F
:102BF0008003FB60FB680023BB606E4B1B6B6D4A60
:102C000043F0010313636B4B1B6B03F00103BB60C9
:102C1000BB6800237B60674B1B6B664A43F0020373
:102C20001363644B1B6B03F002037B607B68002320
:102C30003B60604B1B6B5F4A43F0080313635D4BC3
:102C40001B6B03F008033B603B6800224CF2300131
:102C5000594802F08BF800220321584802F086F808
:102C6000002249F64001564802F080F800224BF25B
:102C70000361544802F07AF800220421524802F01D
:102C800075F84CF230037B610123BB610023FB61CB
:102C900000233B6207F114031946474801F0B2FED6
:102CA00003237B610123BB610023FB6100233B62A3
:102CB00007F114031946414801F0A4FE06237B6185
:102CC0000023BB610023FB6107F1140319463A4856
:102CD00001F098FE48F640037B610123BB610023AD
:102CE000FB6100233B6207F114031946344801F0ED
:102CF00089FE49F203637B610123BB610023FB6111
:102D000000233B6207F1140319462E4801F07AFEB6
:102D10004FF400537B610123BB610223FB6100235D
:102D20003B6207F114031946264801F06BFE4FF48D
:102D300000737B611223BB610023FB6103233B62B1
:102D400004237B6207F1140319461B4801F05AFE65
:102D50004FF480737B611223BB610023FB6103236B
:102D60003B6204237B6207F114031946144801F007
:102D700049FE4FF480537B610123BB610223FB6159
:102D800000233B6207F1140319460D4801F03AFE97
:102D900004237B610123BB610023FB6100233B62B1
:102DA00007F114031946084801F02CFE00BF28372C
:102DB000BD4680BD0038024000080240001C0240B1
:102DC0000000024000040240000C024080B400AF4A
:102DD00072B600BF00BFFDE780B500AF0F494FF0EE
:102DE00000024FF00003C1E900230D4B01221A80BD
:102DF0000C4B00221A8000F01DF80B4B00221A70B9
:102E0000094B00225A70084B00229A70074B00228F
:102E10001A70074B00221A7000BF80BDF801002015
:102E2000D0820020D2820020C87F0020CC820020E7
:102E3000D482002080B483B000AF0023BB7113E0C4
:102E40000023FB710AE0BA79FB793F491201134470
:102E5000F02221F81320FB790133FB71FB790F2B52
:102E6000F1D9BB790133BB71BB790F2BE8D90023B2
:102E7000BB7113E00023FB710AE0BA79FB79334997
:102E800012010A44134400221A70FB790133FB71CA
:102E9000FB790F2BF1D9BB790133BB71BB790F2BB8
:102EA000E8D92A4B01221A700023BB7120E0BB79BC
:102EB000254A5B0113441A88BB7942F0F10291B2B2
:102EC000214A5B0113440A461A80BB791E4A5B0102
:102ED000134406331A88BB7942F0F40291B21A4ABD
:102EE0005B01134406330A461A80BB790133BB7178
:102EF000BB79032BDBD90023FB711AE0FB79124A63
:102F000032F81320FB7942F0F20291B20E4A22F815
:102F10001310FB790C4A303332F81320FB7942F05E
:102F2000F80291B2084A303322F81310FB790133CA
:102F3000FB71FB79032BE1D900BF00BF0C37BD4605
:102F40005DF8047B704700BFCC7F0020CC8100205F
:102F500080B500AF124B00221A700022114B1146AF
:102F60001980114B11461980104B11461980104BD6
:102F70001A8000220F4B114619800F4B1146198001
:102F80000E4B1A800E4B00221A700E4803F058F9AF
:102F90000D4803F055F900F08DF900BF80BD00BF6A
:102FA000DC820020E2820020E0820020DE8200201D
:102FB000E4820020EC820020EA820020E8820020E7
:102FC000C0020020348400205485002080B582B0E7
:102FD00000AF78603960786801F07AF896217868F7
:102FE00001F048F9786801F0D0F907EE900AF8EEA0
:102FF000677AFDEEE77A17EE903A18460837BD4635
:1030000080BD000080B500AF01210348FFF7DEFF5F
:103010000346184680BD00BF3C83002080B500AF4A
:1030200000210348FFF7D2FF0346184680BD00BFCA
:103030003C83002080B500AF02210348FFF7C6FFA4
:103040000346184680BD00BF3C83002080B500AF1A
:1030500003210348FFF7BAFF0346184680BD00BFAF
:103060003C83002080B500AF0A210348FFF7AEFF84
:103070000346184680BD00BF3C83002000000000CE
:1030800080B500AF544B1B681846FDF75DFA50A39E
:10309000D3E90023FDF722FD0346002B09D14E4B57
:1030A000D3ED007AB0EE007AF4EEC77AF1EE10FAC2
:1030B00003DD494B4FF07E521A60484B00221A80C4
:1030C000474B1B889BB207EE903AB8EEE77A424B2B
:1030D000D3ED007ADFED436A67EEA67AB4EEE77AC5
:1030E000F1EE10FA12DC404B1B889BB207EE903ACF
:1030F000B8EEE77A384BD3ED007ADFED3A6A67EE47
:10310000A67AB4EEE77AF1EE10FA1DDD334B1B8898
:1031100043F088039AB2314B1A80314B1B889BB223
:10312000B3F59A7F0BD9304B1B889BB2B3F59A7FCE
:1031300005D92E4A136843F48053136004E02B4AE8
:10314000136823F480531360294B1B889BB207EE4E
:10315000903AB8EEE77A204BD3ED007ADFED256A9E
:1031600067EEA67AB4EEE77AF1EE10FA0ADD1B4BB1
:103170001B8843F044039AB2184B1A801E4B01225D
:103180001A7002E01C4B00221A701C4B1B889BB269
:1031900007EE903AB8EEE77A0F4BD3ED007ADFED09
:1031A000156A67EEA67AB4EEE77AF1EE10FA0ADD58
:1031B0000A4B1B8843F011039AB2084B1A80104B3C
:1031C00001221A7002E00E4B00221A7000BF80BD6F
:1031D000333333333333D33FD8820020CE820020C1
:1031E000E082002000008C43E2820020F8010020F1
:1031F000DE8200200000B94300020020E4820020AB
:103200000102002080B584B000AF0346FB710022AC
:103210000421104801F0AAFDFB7963F07F03DBB2C3
:10322000FB7307F10F01642301220B4802F099FAA6
:1032300007F10E0164230122074802F0CEFB0122B0
:103240000421044801F092FDBB7B18461037BD46AF
:1032500080BD00BF000C0240DC83002080B584B03C
:1032600000AF03460A46FB711346BB71FB7903F0BE
:103270007F03DBB2FB73002204210C4801F076FDD2
:1032800007F10F0164230122094802F06AFAB91D0F
:1032900064230122064802F064FA01220421034853
:1032A00001F064FD00BF1037BD4680BD000C024038
:1032B000DC83002080B582B000AF0023FB71752055
:1032C000FFF7A0FF0346FB71FB791946204805F084
:1032D0001DFBFB79982B17D0642000F091FE9820FD
:1032E000FFF790FF0346FB71FB79982B0CD0194830
:1032F00005F074FB40F6B830FDF75EFE40F6B830DE
:10330000FDF75AFE00BFFDE700216B20FFF7A6FF87
:10331000322000F075FE00216C20FFF79FFF322065
:1033200000F06EFE18211B20FFF798FF322000F0FE
:1033300067FE18211B20FFF791FF322000F060FE8E
:10334000054B01221A7000BF0837BD4680BD00BF83
:103350002CA9000840A900083883002090B585B04A
:1033600000AF0346FB71FB791846FFF74BFF03469E
:103370001BB21B021CB2FB790133DBB21846FFF70C
:1033800041FF03461BB22343FB81B7F90E3007EE22
:10339000903AB8EEE77ADFED076AC7EE267AC7ED16
:1033A000027ABB6807EE903AB0EE670A1437BD4662
:1033B00090BD00BF3333834190B585B000AF034665
:1033C000FB71FB791846FFF71DFF03461BB21B027A
:1033D0001CB2FB790133DBB21846FFF713FF03463B
:1033E0001BB22343FB81B7F90E3007EE903AB8EEDB
:1033F000E77ADFED076AC7EE267AC7ED027ABB6887
:1034000007EE903AB0EE670A1437BD4690BD00BF94
:103410000000004580B500AF3D4B1B78012B75D1F6
:103420004320FFF79BFFF0EE407AF1EE677A394BCD
:10343000C3ED007A4520FFF791FFF0EE407A364B5E
:10344000C3ED007A4720FFF789FFF0EE407A334B57
:10345000C3ED007A3B20FFF7AFFFF0EE407AF1EECC
:10346000677A2F4BC3ED007A3D20FFF7A5FFF0EE02
:10347000407A2C4BC3ED007A3F20FFF79DFFF0EE22
:10348000407A294BC3ED007A224B93ED007A274B0B
:10349000D3ED007A77EE677A254BC3ED007A1E4BA9
:1034A00093ED007A234BD3ED007A77EE677A224BC7
:1034B000C3ED007A194B93ED007A204BD3ED007ADF
:1034C00077EE677A1E4BC3ED007A154B93ED007AC9
:1034D0001C4BD3ED007A77EE677A1B4BC3ED007A75
:1034E000104B93ED007A194BD3ED007A77EE677AA3
:1034F000174BC3ED007A0C4B93ED007A154BD3EDCF
:10350000007A77EE677A144BC3ED007A00BF80BD76
:1035100038830020F0820020F4820020F88200200E
:10352000FC820020008300200483002020830020F0
:1035300008830020248300200C830020288300209F
:10354000108300202C83002014830020308300206F
:1035500018830020348300201C83002080B500AF36
:10356000164B1B889BB2B3F5B97F05D800224FF4E8
:103570008051134801F0FAFB124B1B889BB2B3F544
:10358000B97F05D800224FF400510D4801F0EEFB41
:103590000D4B1B889BB2B3F58C7F05D90B4B1B8859
:1035A0009BB2B3F58C7F06D800224FF40041084847
:1035B00001F0DCFB00BF00BF80BD00BFE482002043
:1035C00000040240DE820020E0820020E28200202F
:1035D0000000024080B500AFFFF752FD324B1B6880
:1035E000C3F30043DBB2002B15D0304B1B78DBB2AA
:1035F00083F00103DBB2002B12D02D4B1B889BB252
:10360000012B0DD8284A136843F480231360284BFC
:1036100003221A8004E0244A136823F480231360F1
:10362000214B1B68C3F34043DBB2002B15D0214B69
:103630001B78DBB283F00103DBB2002B12D01C4BF2
:103640001B889BB2012B0DD8174A136843F4002343
:103650001360174B03221A8004E0134A136823F403
:1036600000231360114B1B78DBB2002B05D00E4AF0
:10367000136843F48033136004E00B4A136823F4A7
:10368000803313600B4B1B78DBB2002B05D0064A4E
:10369000136843F40033136004E0034A136823F40F
:1036A0000033136000BF80BDF8010020000200203D
:1036B000BE0200200102002080B483B000AF0023CE
:1036C0007B60104B5B6C0F4A43F4804353640D4B9B
:1036D0005B6C03F480437B607B6800233B60094B99
:1036E0001B6C084A43F080531364064B1B6C03F0B9
:1036F00080533B603B6800BF0C37BD465DF8047BE0
:10370000704700BF0038024080B58AB000AF7860D3
:1037100007F1140300221A605A609A60DA601A6195
:103720007B681B68244A934241D100233B61234BB1
:103730005B6C224A43F480735364204B5B6C03F44C
:1037400080733B613B690023FB601C4B1B6B1B4A76
:1037500043F004031363194B1B6B03F00403FB607A
:10376000FB680023BB60154B1B6B144A43F001033D
:103770001363124B1B6B03F00103BB60BB68012397
:103780007B610323BB610023FB6107F1140319462E
:103790000B4801F037F90F237B610323BB61002342
:1037A000FB6107F114031946064801F02BF900BF2D
:1037B0002837BD4680BD00BF0020014000380240D0
:1037C000000802400000024080B58CB000AF786075
:1037D00007F11C0300221A605A609A60DA601A61CD
:1037E0007B681B68414A93424AD10023BB61404B2E
:1037F0005B6C3F4A43F4805353643D4B5B6C03F472
:103800008053BB61BB6900237B61394B1B6B384A1A
:1038100043F001031363364B1B6B03F001037B6121
:103820007B6900233B61324B1B6B314A43F002033F
:1038300013632F4B1B6B03F002033B613B69802337
:10384000FB6102233B6200237B620323BB620523EF
:10385000FB6207F11C031946264801F0D3F8082340
:10386000FB6102233B6200237B620323BB620523CF
:10387000FB6207F11C0319461F4801F0C3F831E051
:103880007B681B681D4A93422CD10023FB60184BB8
:103890001B6C174A43F400431364154B1B6C03F471
:1038A0000043FB60FB680023BB60114B1B6B104A9D
:1038B00043F0040313630E4B1B6B03F00403BB6064
:1038C000BB684FF4E053FB6102233B6200237B6241
:1038D0000323BB620623FB6207F11C031946084859
:1038E00001F090F800BF3037BD4680BD0030014088
:1038F000003802400000024000040240003C00404A
:103900000008024080B586B000AF78607B681B6815
:10391000304A934216D100237B612F4B5B6C2E4AB9
:1039200043F0010353642C4B5B6C03F001037B6198
:103930007B6900220121182001F02DF8182001F0E8
:1039400046F842E07B681B68B3F1804F0ED100233C
:103950003B61214B1B6C204A43F0010313641E4B57
:103960001B6C03F001033B613B692EE07B681B6825
:103970001A4A93420ED10023FB60174B1B6C164A68
:1039800043F002031364144B1B6C03F00203FB604F
:10399000FB681AE07B681B68114A934215D100232B
:1039A000BB600D4B1B6C0C4A43F0080313640A4BBD
:1039B0001B6C03F00803BB60BB68002200213220AF
:1039C00000F0E9FF322001F002F800BF1837BD46D1
:1039D00080BD00BF000001400038024000040040EC
:1039E000000C004080B58AB000AF786007F1140386
:1039F00000221A605A609A60DA601A617B681B685C
:103A0000194A93422BD100233B61184B1B6C174A78
:103A100043F004031364154B1B6C03F004033B6178
:103A20003B690023FB60114B1B6B104A43F0020300
:103A300013630E4B1B6B03F00203FB60FB68C02398
:103A40007B610223BB610023FB6100233B620223F5
:103A50007B6207F114031946054800F0D3FF00BF4D
:103A60002837BD4680BD00BF000800400038024036
:103A70000004024080B58AB000AF786007F11403FB
:103A800000221A605A609A60DA601A617B681B68CB
:103A9000194A93422BD100233B61184B5B6C174AA8
:103AA00043F002035364154B5B6C03F002033B616C
:103AB0003B690023FB60114B1B6B104A43F004036E
:103AC00013630E4B1B6B03F00403FB60FB68C02306
:103AD0007B610223BB610023FB6100233B62032364
:103AE0007B6207F114031946054800F08BFF00BF05
:103AF0002837BD4680BD00BF0004014000380240A9
:103B00000008024080B58AB000AF786007F1140366
:103B100000221A605A609A60DA601A617B681B683A
:103B2000B3F1804F3DD100233B61314B1B6B304AD9
:103B300043F0010313632E4B1B6B03F001033B6146
:103B40003B690023FB602A4B1B6B294A43F00203AD
:103B50001363274B1B6B03F00203FB60FB682023FE
:103B60007B610223BB610023FB6100233B620123D5
:103B70007B6207F1140319461E4800F043FF4FF41F
:103B800000637B610223BB610023FB6100233B6276
:103B900001237B6207F114031946174800F032FF36
:103BA00022E07B681B68154A93421DD10023BB604D
:103BB0000F4B1B6B0E4A43F0020313630C4B1B6B42
:103BC00003F00203BB60BB6830237B610223BB614F
:103BD0000023FB6100233B6202237B6207F1140395
:103BE0001946054800F00EFF00BF2837BD4680BDCE
:103BF000003802400000024000040240000400407F
:103C000080B58AB000AF786007F1140300221A6013
:103C10005A609A60DA601A617B681B68194A93429D
:103C20002CD100233B61184B5B6C174A43F0100307
:103C30005364154B5B6C03F010033B613B6900233D
:103C4000FB60114B1B6B104A43F0010313630E4BD7
:103C50001B6B03F00103FB60FB684FF4C0637B61E7
:103C60000223BB610023FB6103233B6207237B62CA
:103C700007F114031946054800F0C4FE00BF2837B9
:103C8000BD4680BD001001400038024000000240E7
:103C900080B400AF00BFFDE780B400AF00BFFDE718
:103CA00080B400AF00BFFDE780B400AF00BFFDE708
:103CB00080B400AF00BFFDE780B400AF00BFBD46D9
:103CC0005DF8047B704780B400AF00BFBD465DF86F
:103CD000047B704780B400AF00BFBD465DF8047B35
:103CE000704780B500AF00F06BF900BF80BD0000E9
:103CF00080B500AF024802F027FE00BF80BD00BFC4
:103D00003484002080B500AF024802F01DFE00BFE1
:103D100080BD00BF5485002080B400AF0123184649
:103D2000BD465DF8047B704780B582B000AF786017
:103D3000396004F085FF034616221A604FF0FF3306
:103D400018460837BD4680BD80B582B000AF7860A8
:103D50004FF0FF317868FFF7E7FF00BFFDE780B560
:103D600086B000AFF860B9607A6000237B610AE03A
:103D7000AFF300800146BB685A1CBA60CAB21A7021
:103D80007B6901337B617A697B689A42F0DB7B68EF
:103D900018461837BD4680BD80B586B000AFF860C4
:103DA000B9607A6000237B6109E0BB685A1CBA6085
:103DB0001B781846FDF740F97B6901337B617A690E
:103DC0007B689A42F1DB7B6818461837BD4680BD98
:103DD00080B483B000AF78604FF0FF3318460C37E3
:103DE000BD465DF8047B704780B483B000AF786057
:103DF00039603B684FF400525A60002318460C3774
:103E0000BD465DF8047B704780B483B000AF786036
:103E1000012318460C37BD465DF8047B704780B41B
:103E200085B000AFF860B9607A6000231846143797
:103E3000BD465DF8047B704780B586B000AF786002
:103E4000144A154BD31A7B617B693B61134B1B688A
:103E5000002B02D1114B124A1A60104B1A687B6872
:103E600013443A699A4207D204F0EAFE03460C2250
:103E70001A604FF0FF3309E0084B1B68FB60074BEB
:103E80001A687B681344054A1360FB6818461837A4
:103E9000BD4680BD000002200004000028860020EE
:103EA0008087002080B400AF064BD3F88830054AE5
:103EB00043F47003C2F8883000BFBD465DF8047B50
:103EC000704700BF00ED00E0DFF834D00D480E4928
:103ED0000E4A002302E0D458C4500433C4188C4264
:103EE000F9D30B4A0B4C002301E013600432A242C9
:103EF000FBD3FFF7D7FF04F0A9FEFEF7A1F9704747
:103F00000000022000000020D401002004AD0008C1
:103F1000D80100207C870020FEE7000080B500AFBC
:103F20000E4B1B680D4A43F4007313600B4B1B6868
:103F30000A4A43F480631360084B1B68074A43F442
:103F400080731360032000F01BFD002000F008F8D0
:103F5000FFF7B2FB0023184680BD00BF003C0240C3
:103F600080B582B000AF7860124B1A68124B1B7894
:103F700019464FF47A73B3FBF1F3B2FBF3F318462F
:103F800000F033FD0346002B01D001230EE07B68D7
:103F90000F2B0AD8002279684FF0FF3000F0FBFCAD
:103FA000064A7B681360002300E0012318460837A7
:103FB000BD4680BD00000020080000200400002055
:103FC00080B400AF064B1B781A46064B1B6813449F
:103FD000044A136000BFBD465DF8047B704700BF14
:103FE000080000202C86002080B400AF034B1B6823
:103FF0001846BD465DF8047B704700BF2C86002044
:1040000080B584B000AF7860FFF7EEFFB8607B68E2
:10401000FB60FB68B3F1FF3F05D00A4B1B781A46E3
:10402000FB681344FB6000BFFFF7DEFF0246BB687E
:10403000D31AFA689A42F7D800BF00BF1037BD46BE
:1040400080BD00BF0800002080B584B000AF78605C
:104050000023FB737B68002B01D1012333E07B68D5
:104060001B6C002B09D17868FFF74EFB7B680022A0
:104070005A647B68002283F83C207B681B6C03F049
:104080001003002B18D17B681B6C23F4885323F09A
:10409000020343F002027B681A64786800F0A4FA15
:1040A0007B6800225A647B681B6C23F0030343F097
:1040B00001027B681A6401E00123FB737B68002224
:1040C00083F83C20FB7B18461037BD4680BD0000BE
:1040D00080B485B000AF78600023BB607B6893F844
:1040E0003C30012B01D10223B2E07B68012283F82E
:1040F0003C207B681B689B6803F00103012B18D0F0
:104100007B681B689A687B681B6842F001029A60B2
:10411000524B1B68524AA2FB03239A0C13465B00C6
:104120001344BB6002E0BB68013BBB60BB68002B73
:10413000F9D17B681B689B6803F00103012B7AD1DE
:104140007B681B6C23F4E06323F0010343F480726B
:104150007B681A647B681B685B6803F48063002BD0
:1041600007D07B681B6C23F4405343F480527B6878
:104170001A647B681B6C03F48053B3F5805F06D12F
:104180007B685B6C23F006027B685A6402E07B6804
:1041900000225A647B68002283F83C20314BFB608C
:1041A0007B681B686FF022021A60FB685B6803F093
:1041B0001F03002B2AD17B681B682B4A934215D022
:1041C0007B681B68294A934205D1264B5B6803F044
:1041D0001F03002B0AD07B681B68254A934236D107
:1041E000204B5B6803F01003002B30D17B681B6809
:1041F0009B6803F04053002B29D17B681B689A68A9
:104200007B681B6842F080429A6020E07B681B68F4
:10421000154A93421BD17B681B689B6803F040538F
:10422000002B14D17B681B689A687B681B6842F07E
:1042300080429A600BE07B681B6C43F010027B6845
:104240001A647B685B6C43F001027B685A6400234C
:1042500018461437BD465DF8047B70470000002007
:1042600083DE1B4300230140002001400021014068
:104270000022014080B584B000AF7860396000232F
:10428000FB607B681B689B6803F48063B3F5806FF9
:1042900013D17B681B689B6803F48073B3F5807F40
:1042A0000BD17B681B6C43F020027B681A647B682F
:1042B000002283F83C20012363E0FFF795FEF860BD
:1042C00021E03B68B3F1FF3F1DD03B68002B07D0D6
:1042D000FFF78AFE0246FB68D31A3A689A4212D266
:1042E0007B681B681B6803F00203022B0BD07B6802
:1042F0001B6C43F004027B681A647B68002283F81D
:104300003C2003233DE07B681B681B6803F002032D
:10431000022BD6D17B681B686FF012021A607B6893
:104320001B6C43F400727B681A647B681B689B6893
:1043300003F04053002B23D17B681B7E002B1FD141
:104340007B681B68DB6A03F47003002B06D07B6874
:104350001B689B6803F48063002B11D17B681B6C86
:1043600023F480727B681A647B681B6C03F48053AF
:10437000002B05D17B681B6C43F001027B681A643B
:10438000002318461037BD4680BD80B483B000AF0F
:1043900078607B681B68DB6C18460C37BD465DF89F
:1043A000047B704780B485B000AF7860396000232B
:1043B000BB607B6893F83C30012B01D1022305E1FF
:1043C0007B68012283F83C203B681B68092B25D9B8
:1043D0007B681B68D9683B681B689BB21A4613460A
:1043E0005B0013441E3B072202FA03F3DA437B68A7
:1043F0001B680A40DA607B681B68D9683B689A686A
:104400003B681B689BB2184603465B0003441E3B97
:104410009A407B681B680A43DA6022E07B681B686D
:1044200019693B681B689BB21A4613465B0013442C
:10443000072202FA03F3DA437B681B680A401A6119
:104440007B681B6819693B689A683B681B689BB26C
:10445000184603465B0003449A407B681B680A4386
:104460001A613B685B68062B24D87B681B68596B14
:104470003B685A6813469B001344053B1F2202FA0F
:1044800003F3DA437B681B680A405A637B681B6846
:10449000596B3B681B689BB218463B685A681346C9
:1044A0009B001344053B00FA03F27B681B680A4338
:1044B0005A634CE03B685B680C2B24D87B681B6814
:1044C000196B3B685A6813469B001344233B1F2219
:1044D00002FA03F3DA437B681B680A401A637B68BD
:1044E0001B68196B3B681B689BB218463B685A688F
:1044F00013469B001344233B00FA03F27B681B68BE
:104500000A431A6323E07B681B68D96A3B685A68D0
:1045100013469B001344413B1F2202FA03F3DA4384
:104520007B681B680A40DA627B681B68D96A3B6853
:104530001B689BB218463B685A6813469B0013449D
:10454000413B00FA03F27B681B680A43DA62224BA4
:10455000FB607B681B68214A934209D13B681B685A
:10456000122B05D1FB685B6843F48002FB685A603C
:104570007B681B68194A934223D13B681B68102B48
:1045800003D03B681B68112B1BD1FB685B6843F4AD
:104590000002FB685A603B681B68102B11D1104B5E
:1045A0001B68104AA2FB03239A0C13469B0013447A
:1045B0005B00BB6002E0BB68013BBB60BB68002BDB
:1045C000F9D17B68002283F83C2000231846143779
:1045D000BD465DF8047B7047002301400020014088
:1045E0000000002083DE1B4380B485B000AF7860FC
:1045F000794BFB60FB685B6823F44032FB685A60D0
:10460000FB685A687B685B681A43FB685A607B6882
:104610001B685A687B681B6822F480725A607B684A
:104620001B6859687B681B691A027B681B680A4310
:104630005A607B681B685A687B681B6822F040726E
:104640005A607B681B6859687B689A687B681B683E
:104650000A435A607B681B689A687B681B6822F46F
:1046600000629A607B681B6899687B68DA687B687F
:104670001B680A439A607B689B6A584A934222D01F
:104680007B681B689A687B681B6822F070629A607E
:104690007B681B6899687B689A6A7B681B680A4319
:1046A0009A607B681B689A687B681B6822F040529E
:1046B0009A607B681B6899687B68DA6A7B681B680C
:1046C0000A439A600FE07B681B689A687B681B68E6
:1046D00022F070629A607B681B689A687B681B682E
:1046E00022F040529A607B681B689A687B681B685E
:1046F00022F002029A607B681B6899687B681B7EC7
:104700005A007B681B680A439A607B6893F82030E4
:10471000002B1BD07B681B685A687B681B6842F4BF
:1047200000625A607B681B685A687B681B6822F4C9
:1047300060425A607B681B6859687B685B6A013B12
:104740005A037B681B680A435A6007E07B681B6852
:104750005A687B681B6822F400625A607B681B6899
:10476000DA6A7B681B6822F47002DA627B681B6875
:10477000D96A7B68DB69013B1A057B681B680A43C1
:10478000DA627B681B689A687B681B6822F4007297
:104790009A607B681B6899687B6893F830305A028E
:1047A0007B681B680A439A607B681B689A687B6811
:1047B0001B6822F480629A607B681B6899687B683A
:1047C0005B699A027B681B680A439A6000BF1437D2
:1047D000BD465DF8047B7047002301400100000FD7
:1047E00080B485B000AF78607B6803F00703FB609E
:1047F0000C4BDB68BB60BA684FF6FF031340BB602D
:10480000FB681A02BB68134343F0BF6343F40033F1
:10481000BB60044ABB68D36000BF1437BD465DF877
:10482000047B704700ED00E080B400AF044BDB6810
:104830001B0A03F007031846BD465DF8047B70476A
:1048400000ED00E080B483B000AF0346FB7197F940
:104850000730002B0BDBFB7903F01F02074997F9A8
:1048600007305B09012000FA02F241F8232000BF63
:104870000C37BD465DF8047B704700BF00E100E0E7
:1048800080B483B000AF03463960FB7197F90730FD
:10489000002B0ADB3B68DAB20C4997F907301201AA
:1048A000D2B20B4483F800230AE03B68DAB208492D
:1048B000FB7903F00F03043B1201D2B20B441A76CA
:1048C00000BF0C37BD465DF8047B704700E100E097
:1048D00000ED00E080B489B000AFF860B9607A60A4
:1048E000FB6803F00703FB61FB69C3F10703042BBB
:1048F00028BF0423BB61FB690433062B02D9FB6983
:10490000033B00E000237B614FF0FF32BB6902FAFA
:1049100003F3DA43BB681A407B699A404FF0FF31DA
:104920007B6901FA03F3D9437B680B4013431846B4
:104930002437BD465DF8047B7047000080B582B027
:1049400000AF78607B68013BB3F1807F01D3012326
:104950000FE00A4A7B68013B53600F214FF0FF30A4
:10496000FFF78EFF054B00229A60044B07221A6066
:10497000002318460837BD4680BD00BF10E000E0A8
:1049800080B582B000AF78607868FFF729FF00BF7C
:104990000837BD4680BD80B586B000AF0346B9601C
:1049A0007A60FB7300237B61FFF73EFF78617A68D2
:1049B000B9687869FFF78EFF024697F90F30114604
:1049C0001846FFF75DFF00BF1837BD4680BD80B5B4
:1049D00082B000AF0346FB7197F907301846FFF726
:1049E00031FF00BF0837BD4680BD80B582B000AF43
:1049F00078607868FFF7A2FF034618460837BD467F
:104A000080BD000080B489B000AF786039600023B9
:104A10007B6100233B610023BB610023FB616BE1F1
:104A20000122FB6902FA03F37B613B681B687A6928
:104A300013403B613A697B699A4240F05A813B6876
:104A40005B6803F00303012B05D03B685B6803F050
:104A50000303022B30D17B689B68BB61FB695B0061
:104A6000032202FA03F3DB43BA691340BB613B68DC
:104A7000DA68FB695B0002FA03F3BA691343BB61AE
:104A80007B68BA699A607B685B68BB610122FB69DD
:104A900002FA03F3DB43BA691340BB613B685B680E
:104AA0001B0903F00102FB6902FA03F3BA6913431D
:104AB000BB617B68BA695A603B685B6803F00303BB
:104AC000032B17D07B68DB68BB61FB695B000322AB
:104AD00002FA03F3DB43BA691340BB613B689A688F
:104AE000FB695B0002FA03F3BA691343BB617B689D
:104AF000BA69DA603B685B6803F00303022B23D1D9
:104B0000FB69DA087B68083253F82230BB61FB6925
:104B100003F007039B000F2202FA03F3DB43BA6999
:104B20001340BB613B681A69FB6903F007039B00F4
:104B300002FA03F3BA691343BB61FB69DA087B68C5
:104B40000832B96943F822107B681B68BB61FB69B6
:104B50005B00032202FA03F3DB43BA691340BB6133
:104B60003B685B6803F00302FB695B0002FA03F336
:104B7000BA691343BB617B68BA691A603B685B68BA
:104B800003F44033002B00F0B4800023FB60604B43
:104B90005B6C5F4A43F4804353645D4B5B6C03F48E
:104BA0008043FB60FB685B4AFB699B08023352F859
:104BB0002330BB61FB6903F003039B000F2202FA61
:104BC00003F3DB43BA691340BB617B68524A9342EB
:104BD0002BD07B68514A934225D07B68504A934240
:104BE0001FD07B684F4A934219D07B684E4A93424C
:104BF00013D07B684D4A93420DD07B684C4A934258
:104C000007D07B684B4A934201D107230EE008236B
:104C10000CE006230AE0052308E0042306E0032352
:104C200004E0022302E0012300E00023FA6902F01D
:104C3000030292009340BA691343BB613549FB6993
:104C40009B080233BA6941F823203B4B9B68BB6148
:104C50003B69DB43BA691340BB613B685B6803F4A3
:104C60008013002B03D0BA693B691343BB61324AFE
:104C7000BB699360304BDB68BB613B69DB43BA695E
:104C80001340BB613B685B6803F40013002B03D047
:104C9000BA693B691343BB61274ABB69D360264BA2
:104CA0005B68BB613B69DB43BA691340BB613B682E
:104CB0005B6803F40033002B03D0BA693B691343EC
:104CC000BB611D4ABB6953601B4B1B68BB613B69E1
:104CD000DB43BA691340BB613B685B6803F4803314
:104CE000002B03D0BA693B691343BB61124ABB690D
:104CF0001360FB690133FB61FB690F2B7FF690AEFC
:104D000000BF00BF2437BD465DF8047B704700BF7D
:104D10000038024000380140000002400004024018
:104D200000080240000C0240001002400014024043
:104D300000180240001C0240003C014080B485B0D5
:104D400000AF78600B467B807B681A697B881340D4
:104D5000002B02D00123FB7301E00023FB73FB7BDC
:104D600018461437BD465DF8047B704780B483B0A5
:104D700000AF78600B467B8013467B707B78002BFE
:104D800003D07A887B689A6103E07B881A047B6889
:104D90009A6100BF0C37BD465DF8047B7047000088
:104DA00080B586B000AF78607B68002B01D101230D
:104DB00067E27B681B6803F00103002B75D0884B0A
:104DC0009B6803F00C03042B0CD0854B9B6803F00D
:104DD0000C03082B12D1824B5B6803F48003B3F5FC
:104DE000800F0BD17E4B1B6803F40033002B5BD08C
:104DF0007B685B68002B57D1012342E27B685B68CC
:104E0000B3F5803F06D1764B1B68754A43F4803377
:104E100013601DE07B685B68B3F5A02F0CD1704B6D
:104E20001B686F4A43F4802313606D4B1B686C4A08
:104E300043F4803313600BE0694B1B68684A23F42A
:104E400080331360664B1B68654A23F4802313602C
:104E50007B685B68002B13D0FFF7C6F8386108E069
:104E6000FFF7C2F802463B69D31A642B01D903232A
:104E700007E25B4B1B6803F40033002BF0D014E017
:104E8000FFF7B2F8386108E0FFF7AEF802463B6979
:104E9000D31A642B01D90323F3E1514B1B6803F4AC
:104EA0000033002BF0D100E000BF7B681B6803F0EB
:104EB0000203002B63D04A4B9B6803F00C03002BCA
:104EC0000BD0474B9B6803F00C03082B1CD1444BC1
:104ED0005B6803F48003002B16D1414B1B6803F081
:104EE0000203002B05D07B68DB68012B01D0012376
:104EF000C7E13B4B1B6823F0F8027B681B69DB00B2
:104F0000374913430B603AE07B68DB68002B20D005
:104F1000344B01221A60FFF767F8386108E0FFF7A9
:104F200063F802463B69D31A022B01D90323A8E197
:104F30002B4B1B6803F00203002BF0D0284B1B689F
:104F400023F0F8027B681B69DB00254913430B60E3
:104F500015E0244B00221A60FFF746F8386108E09C
:104F6000FFF742F802463B69D31A022B01D903230B
:104F700087E11B4B1B6803F00203002BF0D17B6819
:104F80001B6803F00803002B36D07B685B69002B9D
:104F900016D0154B01221A60FFF726F8386108E099
:104FA000FFF722F802463B69D31A022B01D90323EB
:104FB00067E10B4B5B6F03F00203002BF0D01BE0AB
:104FC000094B00221A60FFF70FF838610EE0FFF777
:104FD0000BF802463B69D31A022B07D9032350E191
:104FE0000038024000004742800E4742884B5B6F0A
:104FF00003F00203002BEAD17B681B6803F0040373
:10500000002B00F097800023FB75814B1B6C03F095
:105010008053002B0FD10023BB607D4B1B6C7C4A5F
:1050200043F0805313647A4B1B6C03F08053BB60D6
:10503000BB680123FB75774B1B6803F48073002B5F
:1050400018D1744B1B68734A43F480731360FEF7E6
:10505000CBFF386108E0FEF7C7FF02463B69D31A71
:10506000022B01D903230CE16A4B1B6803F4807304
:10507000002BF0D07B689B68012B06D1644B1B6F23
:10508000634A43F0010313671CE07B689B68052BB0
:105090000CD15F4B1B6F5E4A43F0040313675C4BFC
:1050A0001B6F5B4A43F0010313670BE0584B1B6F08
:1050B000574A23F001031367554B1B6F544A23F0E3
:1050C000040313677B689B68002B15D0FEF78CFFE9
:1050D00038610AE0FEF788FF02463B69D31A41F2C5
:1050E0008832934201D90323CBE0494B1B6F03F075
:1050F0000203002BEED014E0FEF776FF38610AE0E1
:10510000FEF772FF02463B69D31A41F2883293429E
:1051100001D90323B5E03E4B1B6F03F00203002BC4
:10512000EED1FB7D012B05D1394B1B6C384A23F0A6
:10513000805313647B689B69002B00F0A180344B83
:105140009B6803F00C03082B5CD07B689B69022BE7
:1051500041D1314B00221A60FEF746FF386108E06A
:10516000FEF742FF02463B69D31A022B01D9032303
:1051700087E0274B1B6803F00073002BF0D17B689E
:10518000DA697B681B6A1A437B685B6A9B011A4376
:105190007B689B6A5B08013B1B041A437B68DB6AE4
:1051A0001B061B4913434B601B4B01221A60FEF781
:1051B0001BFF386108E0FEF717FF02463B69D31A70
:1051C000022B01D903235CE0114B1B6803F0007331
:1051D000002BF0D054E0104B00221A60FEF704FFC1
:1051E000386108E0FEF700FF02463B69D31A022B44
:1051F00001D9032345E0064B1B6803F00073002B25
:10520000F0D13DE07B689B69012B07D1012338E099
:105210000038024000700040600047421B4B5B6852
:10522000FB607B689B69012B28D0FB6803F480023C
:105230007B68DB699A4221D1FB6803F03F027B68FF
:105240001B6A9A421AD1FA6847F6C07313407A680B
:10525000526A9201934211D1FB6803F440327B6899
:105260009B6A5B08013B1B049A4207D1FB6803F071
:1052700070627B68DB6A1B069A4201D0012300E062
:10528000002318461837BD4680BD00BF00380240D5
:1052900080B584B000AF786039607B68002B01D1A5
:1052A0000123CCE0684B1B6803F007033A689A427D
:1052B0000CD9654B3A68D2B21A70634B1B6803F085
:1052C00007033A689A4201D00123B8E07B681B6863
:1052D00003F00203002B20D07B681B6803F004035B
:1052E000002B05D0594B9B68584A43F4E053936018
:1052F0007B681B6803F00803002B05D0534B9B68A9
:10530000524A43F460439360504B9B6823F0F00291
:105310007B689B684D4913438B607B681B6803F077
:105320000103002B44D07B685B68012B07D1474BFE
:105330001B6803F40033002B19D101237FE07B6845
:105340005B68022B03D07B685B68032B07D13F4B64
:105350001B6803F00073002B09D101236FE03B4B66
:105360001B6803F00203002B01D1012367E0374BD8
:105370009B6823F003027B685B68344913438B60AE
:10538000FEF732FEF8600AE0FEF72EFE0246FB68EA
:10539000D31A41F28832934201D903234FE02B4BB9
:1053A0009B6803F00C027B685B689B009A42EBD120
:1053B000254B1B6803F007033A689A420CD2224B34
:1053C0003A68D2B21A70204B1B6803F007033A68A0
:1053D0009A4201D0012332E07B681B6803F004038A
:1053E000002B08D0194B9B6823F4E0527B68DB68E4
:1053F000164913438B607B681B6803F00803002B7E
:1054000009D0124B9B6823F460427B681B69DB0068
:105410000E4913438B6000F021F802460B4B9B684A
:105420001B0903F00F030A49CB5C22FA03F3094A74
:105430001360094B1B681846FEF792FD00231846BF
:105440001037BD4680BD00BF003C0240003802401E
:1054500064A9000800000020040000202DE9B04FDE
:1054600090B000AF00237B630023FB6300233B630A
:105470000023BB63594B9B6803F00C03082B0DD032
:10548000082B00F2A180002B02D0042B03D09BE05C
:10549000534BBB639BE0534BBB6398E04F4B5B6844
:1054A00003F03F037B634D4B5B6803F48003002BE9
:1054B00028D04A4B5B689B0900223B627A623B6AB8
:1054C000C3F308000021474B03FB01F2002300FB5C
:1054D00003F31344434AA0FB0212FA620A46BA627B
:1054E000FA6A1344FB627B6B0022BB61FA61D7E965
:1054F0000623D7E90A01FBF7C7FB02460B46134612
:10550000FB6353E0354B5B689B0900223B617A618A
:105510003B69C3F3080A4FF0000B52465B464FF05D
:1055200000004FF00001590141EAD26150010246EA
:105530000B46B2EB0A0863EB0B094FF000024FF089
:1055400000034FEA891343EA98634FEA8812B2EBEB
:10555000080463EB09054FF000024FF00003EB0075
:1055600043EA5473E20014461D4614EB0A033B6001
:1055700045EB0B037B604FF000024FF00003D7E9CF
:10558000004529468B02214643EA915321468A026F
:10559000104619467B6B0022BB60FA60D7E90223F4
:1055A000FBF772FB02460B461346FB630B4B5B6833
:1055B0001B0C03F0030301335B003B63FA6B3B6B93
:1055C000B2FBF3F3BB6302E0054BBB6300BFBB6BF5
:1055D00018464037BD46BDE8B08F00BF00380240D6
:1055E0000024F40040787D0180B400AF034B1B68B9
:1055F0001846BD465DF8047B704700BF00000020E0
:1056000080B500AFFFF7F0FF0246054B9B689B0A91
:1056100003F007030349CB5C22FA03F3184680BD6D
:105620000038024074A9000880B500AFFFF7DCFF26
:105630000246054B9B685B0B03F007030349CB5CF9
:1056400022FA03F3184680BD0038024074A900080E
:1056500080B582B000AF78607B68002B01D1012358
:105660007BE07B685B6A002B08D17B685B68B3F5E5
:10567000827F09D07B680022DA6105E07B68002226
:105680001A617B6800225A617B6800229A627B68FB
:1056900093F85130DBB2002B06D17B68002283F8EF
:1056A00050207868FEF790F87B68022283F851203A
:1056B0007B681B681A687B681B6822F040021A60CE
:1056C0007B685B6803F482727B689B6803F4044325
:1056D0001A437B68DB6803F400631A437B681B6929
:1056E00003F002031A437B685B6903F001031A436A
:1056F0007B689B6903F400731A437B68DB6903F0E2
:1057000038031A437B681B6A03F0800342EA0301F3
:105710007B689B6A03F400527B681B680A431A602B
:105720007B689B691B0C03F004017B685B6A03F0D8
:1057300010027B681B680A435A607B681B68DA6941
:105740007B681B6822F40062DA617B6800225A657C
:105750007B68012283F85120002318460837BD4694
:1057600080BD80B588B000AFF860B9603B6013467B
:10577000FB800023FB77FB6893F85030012B01D1AD
:10578000022326E1FB68012283F85020FEF72CFC5F
:10579000B861FB88FB82FB6893F85130DBB2012BC8
:1057A00002D00223FB770BE1BB68002B02D0FB8801
:1057B000002B02D10123FB7702E1FB68032283F86F
:1057C0005120FB6800225A65FB68BA681A63FB68BF
:1057D000FA889A86FB68FA88DA86FB6800229A6360
:1057E000FB6800229A87FB680022DA87FB680022A8
:1057F0005A64FB6800221A64FB689B68B3F5004F8B
:105800000FD1FB681B681A68FB681B6822F0400216
:105810001A60FB681B681A68FB681B6842F48042C8
:105820001A60FB681B681B6803F04003402B07D01D
:10583000FB681B681A68FB681B6842F040021A602C
:10584000FB68DB68B3F5006F4BD1FB685B68002B2E
:1058500002D0FB8A012B3ED1FB681B6B1A88FB68C8
:105860001B68DA60FB681B6B9A1CFB681A63FB6899
:10587000DB8E9BB2013B9AB2FB68DA862BE0FB68B9
:105880001B689B6803F00203022B12D1FB681B6BA1
:105890001A88FB681B68DA60FB681B6B9A1CFB6844
:1058A0001A63FB68DB8E9BB2013B9AB2FB68DA8617
:1058B00011E0FEF799FB0246BB69D31A3A689A4297
:1058C00003D83B68B3F1FF3F02D13B68002B02D104
:1058D0000323FB7774E0FB68DB8E9BB2002BCED1F9
:1058E0004CE0FB685B68002B02D0FB8A012B40D1A7
:1058F000FB681A6BFB681B680C3312781A70FB6824
:105900001B6B5A1CFB681A63FB68DB8E9BB2013B66
:105910009AB2FB68DA862CE0FB681B689B6803F090
:105920000203022B13D1FB681A6BFB681B680C3354
:1059300012781A70FB681B6B5A1CFB681A63FB68B1
:10594000DB8E9BB2013B9AB2FB68DA8611E0FEF770
:105950004BFB0246BB69D31A3A689A4203D83B68AC
:10596000B3F1FF3F02D13B68002B02D10323FB7749
:1059700026E0FB68DB8E9BB2002BCDD1BA6939687B
:10598000F86800F0CBFB0346002B02D0FB68202216
:105990005A65FB689B68002B0AD100233B61FB68BA
:1059A0001B68DB683B61FB681B689B683B613B696C
:1059B000FB685B6D002B02D00123FB7700E000BF8A
:1059C000FB68012283F85120FB68002283F85020F5
:1059D000FB7F18462037BD4680BD80B588B002AF3A
:1059E000F860B9603B601346FB800023FB75FB68E1
:1059F0005B68B3F5827F12D1FB689B68002B0ED1E8
:105A0000FB68042283F85120FA883B680093134610
:105A1000BA68B968F86800F0F1F80346EAE0FB6894
:105A200093F85030012B01D10223E3E0FB680122FF
:105A300083F85020FEF7D8FA3861FB6893F85130AC
:105A4000DBB2012B02D00223FB75CAE0BB68002B3E
:105A500002D0FB88002B02D10123FB75C1E0FB685B
:105A6000042283F85120FB6800225A65FB68BA685B
:105A70009A63FB68FA889A87FB68FA88DA87FB687A
:105A800000221A63FB6800229A86FB680022DA86ED
:105A9000FB6800221A64FB6800225A64FB689B685A
:105AA000B3F5004F0FD1FB681B681A68FB681B68D1
:105AB00022F040021A60FB681B681A68FB681B68CA
:105AC00022F480421A60FB681B681B6803F04003E5
:105AD000402B07D0FB681B681A68FB681B6842F004
